:100000000C94E4050C94CE0D0C94A70D0C940C06E6
:100010000C940C060C940C060C940C060C940C0618
:100020000C940C060C940C060C940C060C944D0EBF
:100030000C940C060C940C060C940C060C940C06F8
:100040000C945D0D0C940C060C941B0E0C94F50D89
:100050000C940C060C940C060C940C060C940C06D8
:100060000C940C060C940C064E414E494E495459C2
:10007000494E46CDCCCC3D0AD7233C17B7D1387773
:10008000CC2B329595E6241FB14F0A000020410089
:1000900000C84200401C4620BCBE4CCA1B0E5AAED3
:1000A000C59D74D0BFD0BED182D0B5D180D18F20B4
:1000B000D181D0B2D18FD0B7D0B820D18120D0BFDC
:1000C000D0B0D0BDD0B5D0BBD18CD18E00D0BAD0FD
:1000D000BED0BDD186D0B5D0B2D0B8D0BA00D18212
:1000E000D0BED0BA20D0B2D18BD188D0B520D183A8
:1000F000D181D182D0B0D0B2D0BAD0B800D0BED0E9
:10010000B1D0BED180D0BED182D18B20D0B2D18B24
:10011000D188D0B520D183D181D182D0B0D0B2D016
:10012000BAD0B800D0BED0B1D0BED180D0BED182BE
:10013000D18B20D0BDD0B8D0B6D0B520D183D1815D
:10014000D182D0B0D0B2D0BAD0B8000400000090B4
:10015000010000D0070000640000005E01000046BE
:10016000000000C4090000640000005E010000DC23
:1001700005000090010000010000002C01000000BB
:1001800000000000000000B80B00000100000000AB
:10019000000000960000000000000090010000A098
:1001A000860100D007000000000000000000009061
:1001B000010000A0860100D0070000000000000040
:1001C00000000007000000B80B000096000000F4DB
:1001D000010000DC0500002C0100002C010000A043
:1001E000860100A086010000000000000000003C25
:1001F00000000000000000000000080002010000F4
:1002000003040700000000000000002E20D09ED054
:10021000B1D0B520D0BED181D0B820D0BED181D14F
:1002200082D0B0D0BDD0BED0B2D0BBD0B5D0BDD1C1
:100230008B0020592D320020592D310020582D32AD
:100240000020582D31003A20D0BDD0B0D0B6D0B06B
:10025000D182D18B0020D0BCD1810020D0902C2025
:10026000D0B4D0B5D180D0B6D0B8D182D181D18F21
:10027000200020D0902C20D183D181D182D0B0D049
:10028000B2D0BAD0B020003A20D182D0BED0BA20AD
:100290000020D0BCD181002C20D0B4D0B5D180D0EA
:1002A000B6D0B8D182D181D18F20002C20D0B4D04B
:1002B000B0D182D187D0B8D0BA20D0BCD0BED0BB0C
:1002C000D187D0B8D182002E2E0020D0BED0B12F41
:1002D000D0BCD0B8D0BD2C20D183D181D182D0B0B8
:1002E000D0B2D0BAD0B020003A200023D090D09223
:1002F000D090D0A0D098D0AF20004F4B00455252A4
:1003000020002C227370223A002C226472223A00C0
:100310002C227472223A002C2267223A002C226589
:10032000223A002C2272223A002C226E223A002C11
:100330002268223A007B2270223A002028D181D004
:10034000B1D180D0BED18120D181D182D0BED18027
:10035000D0BED0B6D0B5D0B2D18BD0BC29000A2146
:10036000204A4D442D324C20434E4320322E302023
:1003700072656164790020D0BCD18120D0B1D0B544
:10038000D0B720D0BAD0BED0BCD0B0D0BDD0B42C65
:1003900020D0B020D181D182D0BED0BB20D0B5D06A
:1003A000B4D0B5D1820023D09FD09ED0A2D095D01A
:1003B000A0D0AF20D0A1D092D0AFD097D0983A2083
:1003C0000020D0BDD0B0200020D188D0B0D0B32C38
:1003D00020D181200020D09DD090D0A7D090D09B5C
:1003E000D09E200023D0A5D09ED09420002C20D1D8
:1003F00081D182D0B0D0BBD0BE2030003A20D0B165
:10040000D18BD0BBD0BE200023D09ED091D09DD028
:10041000A3D09BD095D09DD090200020D092D09A90
:10042000D09B2C20D0B220D181D182D0BED180D01F
:10043000BED0BDD18320300020D092D09AD09B2C4A
:1004400020D0B220D181D182D0BED180D0BED0BD4B
:10045000D18320310023D094D096D09ED093200019
:100460005D7D0A007B2276223A5B00203D20D09EF3
:10047000D0A2D09FD0A3D0A9D095D09D00203D2060
:10048000D09DD090D096D090D0A20023D09FD09E67
:10049000D094D09CD095D09DD09020D09AD09ED092
:1004A0009DD0A6D095D092D098D09AD09020004FD1
:1004B0004B20007D7D0A002C227073223A002C22F2
:1004C000616C223A002C2261776D223A002C226165
:1004D00077223A002C226172223A002C22636F228A
:1004E0003A002C2263223A002C22726F223A005DDD
:1004F0002C227364223A7B2272223A002C226178E9
:10050000223A5B002C227764223A002C22736E225E
:100510003A002C22736D223A002C226C77223A008A
:100520002C226C6B223A002C22726C223A002C2274
:100530006C6D223A002C226674223A007B22667788
:10054000223A22322E30222C2264223A00D09DD030
:1005500095D098D097D092D095D0A1D0A2D09DD050
:1005600090D0AF20D09AD09ED09CD090D09DD094E7
:10057000D09000D0A1D09AD09ED0A0D09ED0A1D0B3
:10058000A2D0AC20D09DD09520D097D090D094D040
:1005900090D09DD09000D0A8D09FD098D09DD094DE
:1005A000D095D09BD0AC20D09DD09520D092D0A01B
:1005B000D090D0A9D090D095D0A2D0A1D0AF00D06B
:1005C000A1D091D0A0D09ED0A1D0AC20D090D0927C
:1005D000D090D0A0D098D0AE00D09FD0A3D0A2D041
:1005E000AC20D09A20D09AD09ED09DD0A6D095D0C5
:1005F00092D098D09AD0A320D097D090D09AD0A063
:10060000D0ABD0A2004E203D203000D0A1D09DD054
:1006100090D0A7D090D09BD09020D0A1D0A2D09E37
:10062000D09F00D0A1D09DD090D0A7D090D09BD00B
:100630009020D0A1D0A2D09ED09F003A20D0BAD096
:10064000BED0BCD0B0D0BDD0B4D0B00023D0A1D0EB
:10065000A2D09ED09F2000D0A1D09AD09ED0A0D072
:100660009ED0A1D0A2D0AC20D09DD09520D097D044
:1006700090D094D090D09DD09000D0A8D09FD0980A
:10068000D09DD094D095D09BD0AC20D09DD095203B
:10069000D092D0A0D090D0A9D090D095D0A2D0A107
:1006A000D0AF00D0A1D091D0A0D09ED0A1D0AC200E
:1006B000D090D092D090D0A0D098D0AE00D09FD083
:1006C000A3D0A2D0AC20D09A20D09AD09ED09DD0DA
:1006D000A6D095D092D098D09AD0A320D097D09081
:1006E000D09AD0A0D0ABD0A200D0A1D09DD090D035
:1006F000A7D090D09BD09020D0A1D0A2D09ED09F48
:1007000000D09DD095D0A220D09ED0A1D098007DC1
:100710000A002C226973725F6761705F7573223AF9
:10072000002C226C6F6F705F6D61785F7573223A79
:10073000002C226C6F6F705F687A223A002C226C5A
:100740006F7374223A002C226973725F687A223ABE
:10075000007B226D73223A0054207C2054203C6997
:100760003E203CD0B7D0BDD0B0D1873E207C2054B5
:1007700053207C20544400050000007017000070D6
:10078000170000D007000060EA0000C8000000FF6A
:100790000F00009001000060EA000060EA000070B5
:1007A0001700000200000060EA00000100000001E4
:1007B000000000C02709000100000001000000D077
:1007C000070000010000000064000000093D00A0D7
:1007D000860100010000000100000000640000002C
:1007E000093D00A086010001000000010000000793
:1007F00000000060EA000070170000701700007031
:10080000170000701700007017000000093D00007D
:10081000093D000100000001000000701700000108
:1008200000000000000000000000000000000001C7
:100830000000000A000000010000000000000001AC
:100840000000000A0000000000000000000000009E
:100850000000001400000000000000000000000084
:100860000000000000000000000000000000000088
:100870000000000100000001000000000000000076
:100880000000000000000001000000010000000066
:100890000000000000000000000000000000000058
:1008A0000000000100000001000000010000000045
:1008B0000000000000000000000000000000000038
:1008C00000000000000000010000000000000045E2
:1008D0005252205420302E2E004C20302E2E330029
:1008E0004C203C302E2E333E203C307C317C2D3150
:1008F0003E004355203C302E31417C2D313E00528C
:1009000050203CD0BED0B12FD0BCD0B8D0BD7C2DB3
:10091000313E00524C20307C317C2D3100D09ED0B5
:10092000A1D0AC20D097D090D09DD0AFD0A2D09005
:1009300000D0A2D09ED09A20D09FD09ED094D09CA0
:10094000D095D09DD081D09D0023D090D092D090D2
:10095000D0A0D098D0AF20D0A1D091D0A0D09ED0A0
:10096000A8D095D09DD09000D09AD09ED09DD0A6F2
:10097000D095D092D098D09A20D095D0A9D081206F
:10098000D09DD090D096D090D0A20023D0A1D0916D
:10099000D0A0D09ED0A120D09ED0A2D09AD090D06E
:1009A00097D090D09B3A20D0BAD0BED0BDD186D0BF
:1009B000B5D0B2D0B8D0BA20D0B5D189D19120D09D
:1009C000BDD0B0D0B6D0B0D1820023D0A1D0A2D0BB
:1009D0009ED09F20D09ED091D095D098D0A520D0E9
:1009E0009ED0A1D095D0993A20D0BAD0BED0BCD05C
:1009F000B0D0BDD0B4D0B000504F4E47003A20D058
:100A0000BED181D18C20D181D182D0BED18FD0BB3B
:100A1000D0B02C20D0BFD0B5D180D0B2D18BD0B93E
:100A200020D185D0BED0B420D181D0B0D0BC20D0D0
:100A3000B7D0B0D0B4D0B0D181D18220D181D18211
:100A4000D0BED180D0BED0BDD183003A20D0BED19F
:100A500081D18C20D0B5D185D0B0D0BBD0B02C20E6
:100A6000D181D182D0BED0BF2C20D0BED182D0B215
:100A7000D0BED0B420D182D0BED0BBD18CD0BAD021
:100A8000BE20D0B220D0B4D180D183D0B3D183D115
:100A90008E20D181D182D0BED180D0BED0BDD183B5
:100AA0000020D09ED0A2D09FD0A3D0A9D095D09D19
:100AB0000020D09DD090D096D090D0A20023D09A84
:100AC000D09ED09DD0A6D095D092D098D09A20001C
:100AD00023D0A1D0A2D0A0D090D0A5D09ED092D02B
:100AE0009AD0903A20D0BFD183D182D18C20D0BA75
:100AF00020D0BAD0BED0BDD186D0B5D0B2D0B8D07B
:100B0000BAD18320D0B7D0B0D0BAD180D18BD18226
:100B10002C20D181D182D0BED0BF2000D0BAD0BE8F
:100B2000D0B420D0B1D0B5D0B720D0BDD0B0D0B7E0
:100B3000D0B2D0B0D0BDD0B8D18F002C2070200062
:100B40003A20D186D0B5D0BBD18C20002C20D0B09B
:100B5000D0B2D0B0D180D0B8D18F200020D09FD0DB
:100B6000A0D095D0A0D092D090D09D0020D09ED083
:100B70009AD09ED09DD0A7D095D09D005800590006
:100B800023D0A5D09ED0942000000000002500288E
:100B9000002B0000000000240027002A00040404A9
:100BA0000404040404020202020202030303030316
:100BB00003010204081020408001020408102001F3
:100BC0000204081020003B2411241FBECFEFD8E000
:100BD000DEBFCDBF23E0ACECB1E001C01D92A63F6B
:100BE000B207E1F711E0A0E0B1E0E6E4F5E502C00C
:100BF00005900D92AC3CB107D9F715E0C4EED5E0F5
:100C000004C02197FE010E94892AC33ED107C9F77B
:100C10000E94B0110C94A12A0C940000FC01BC01AC
:100C200061557F4F8FEF9FEFE617F70789F021910E
:100C3000AC01422728E0CA019695879540FF04C081
:100C400031E0832730EA93272150AC01A1F7ECCFA4
:100C5000089580E480937C0080917A008064809382
:100C60007A0080917A0086FDFCCF80917800909187
:100C700079000895CF93DF9390E0FC01EF54F44F97
:100C800024918356944FFC0184918823C9F090E00D
:100C9000880F991FFC01ED56F44FA591B491FC010A
:100CA000E757F44FC591D49161110DC09FB7F894E7
:100CB0008C91209582238C938881282328839FBF41
:100CC000DF91CF910895623051F49FB7F8943C9131
:100CD000822F809583238C93E8812E2BEFCF8FB7C3
:100CE000F894EC912E2B2C938FBFEACF3FB7F8945A
:100CF0008091530390915403A0915503B0915603F2
:100D000026B5A89B05C02F3F19F00196A11DB11D66
:100D10003FBFBA2FA92F982F8827BC01CD01620FA2
:100D2000711D811D911D42E0660F771F881F991F5D
:100D30004A95D1F708952FB7F89460914F037091B9
:100D4000500380915103909152032FBF089508954D
:100D5000AF92BF92CF92DF92EF92FF920F931F93C9
:100D6000CF93DF936C017B018B01040F151FEB0107
:100D70005E01AE18BF08C017D10759F06991D601BE
:100D8000ED91FC910190F081E02DC6010995892B30
:100D900079F7C501DF91CF911F910F91FF90EF90EF
:100DA000DF90CF90BF90AF900895FC01538D448D9C
:100DB000252F30E0842F90E0821B930B541710F006
:100DC000CF96089501970895FC01918D828D981713
:100DD00061F0A28DAE0FBF2FB11D5D968C91928DEB
:100DE0009F5F9F73928F90E008958FEF9FEF08951C
:100DF000FC01918D828D981731F0828DE80FF11DE5
:100E0000858D90E008958FEF9FEF0895FC01918DFF
:100E1000228D892F90E0805C9F4F821B91098F73F8
:100E20009927089587E593E00E94060721E0892B22
:100E300009F420E0822F089580E090E0892B29F0CA
:100E40000E94120781110C9400000895FC01A48DEA
:100E5000A80FB92FB11DA35ABF4F2C91848D90E0DC
:100E600001968F739927848FA689B7892C93A089BF
:100E7000B1898C91837080648C93938D848D981349
:100E800006C00288F389E02D80818F7D80830895DC
:100E9000EF92FF920F931F93CF93DF93EC0181E0CA
:100EA000888F9B8D8C8D98131AC0E889F989808171
:100EB00085FF15C09FB7F894EE89FF896083E889A4
:100EC000F98980818370806480839FBF81E090E096
:100ED000DF91CF911F910F91FF90EF900895F62E23
:100EE0000B8D10E00F5F1F4F0F731127E02E8C8DBD
:100EF0008E110CC00FB607FCFACFE889F989808102
:100F000085FFF5CFCE010E942607F1CFEB8DEC0FC8
:100F1000FD2FF11DE35AFF4FF0829FB7F8940B8F1E
:100F2000EA89FB8980818062CFCF0F931F93CF9393
:100F3000DF938C01D0E0C0E0F801EC0FFD1F64915D
:100F4000662341F087E593E00E944807892B11F062
:100F50002196F2CFCE01DF91CF911F910F9108958D
:100F6000682F87E593E00C944807CF93DF93EC015B
:100F7000888D8823B9F0AA89BB89E889F9898C9181
:100F800085FD03C0808186FD0DC00FB607FCF7CF3D
:100F90008C9185FFF2CF808185FFEDCFCE010E943D
:100FA0002607E9CFDF91CF91089590E0AC01440F7F
:100FB000551F23E030E002C0220F331F4A95E2F7AD
:100FC0004091EB0150E024233523232B61F0835F14
:100FD0009E4FFC019081923040F481E001C0880F67
:100FE0009A95EAF7089580E0089583E00895CF92F6
:100FF000DF92EF92FF92CF93DF93C82FD0E095E07E
:10100000899FF0011124EE0FFF1FEE0FFF1FEC521E
:10101000FD4F60817181828193810E94FE266B0168
:101020007C01FE01EE0FFF1FEE0FFF1FE05FFC4F84
:1010300060817181828193810E94FE269B01AC01B7
:10104000C701B6010E945D2720E030E040E752E48E
:101050000E9421296B017C0120E030E44CE956E438
:101060000E94C22918163CF4C12C80E4D82E8CE9C9
:10107000E82E86E4F82E20E030E040E05FE3C70190
:10108000B6010E94B5280E9493292EE22C9FF00100
:101090002D9FF00D1124E05FFE4F718B608B8485D6
:1010A000882371F08785882359F08089918993A3DB
:1010B00082A3DF91CF91FF90EF90DF90CF900895C2
:1010C0008EE28C9FF0018D9FF00D1124E05FFE4FAA
:1010D00080899189938B828B1786EBCF4091D002C8
:1010E0005091D1026091D2027091D30231E0382741
:1010F000452B462B472B09F0382FE4E0F2E02491F2
:10110000EEEBFBE09491EAEAFBE0E491EE23C9F018
:10111000222339F0233011F1B8F4213029F12230A3
:1011200039F1F0E0EE0FFF1FE757F44FA591B491AE
:101130002FB7F894EC91311128C090959E239C9381
:101140002FBF80931D0208952730A9F02830C9F0E1
:10115000243039F7209180002F7D03C0209180003A
:101160002F7720938000DDCF24B52F7724BDD9CFF2
:1011700024B52F7DFBCF2091B0002F772093B000B6
:10118000D0CF2091B0002F7DF9CF9E2BD8CF2FB795
:10119000F89490E0880F991F83599E4FDC01ED91E0
:1011A000FC918081442321F0682B60832FBF089538
:1011B00060956823FACFCF93DF93282F30E09EE22B
:1011C000899FF0011124E05FFE4F8285918541E007
:1011D000992321F0811104C040E002C08111FCCFAD
:1011E0008EE2829FE001839FD00D1124C05FDE4F0D
:1011F0006B818A810E94C70881E08E87DF91CF9141
:1012000008959EE2899FF0011124E05FFE4F14864D
:101210001586178620893189338B228B4091C40231
:101220005091C5026091C6027091C702452B462BB2
:10123000472B31F49285992319F012860C94DB0820
:1012400008955F926F927F928F929F92AF92BF921A
:10125000CF92DF92EF92FF920F931F93CF93DF9382
:10126000182F25E0829FE0011124DE01AA0FBB1F89
:10127000AA0FBB1FAC52BD4FFE01EE0FFF1FEE0FBA
:10128000FF1FE852FD4F5080618072800381C82E9D
:10129000D12C3EE2839FC0011124FC01E05FFE4F90
:1012A0007F016D917D918D919C9116161706180600
:1012B000190624F061E070E080E090E00E94FE26D4
:1012C00020E030E04AE754E40E945D274B015C01D6
:1012D000652D762D872D902F1616170618061906E0
:1012E00024F061E070E080E090E00E94FE269B0127
:1012F000AC01C501B4010E942129F7016483758303
:10130000868397832EE22C9DC0012D9D900D112484
:101310009C01205F3E4F7901FE01EE0FFF1FEE0F93
:10132000FF1FE052FD4F8081F9018087FE01EE0F23
:10133000FF1FEE0FFF1FEC51FD4F8081F9018187E8
:10134000CC0FDD1FCC0FDD1FC452DD4F888199818A
:10135000AA81BB8195A784A77727662720E43CE96B
:1013600040E050E00E944128F70124A335A346A3A2
:1013700057A3812FDF91CF911F910F91FF90EF9095
:10138000DF90CF90BF90AF909F908F907F906F90A5
:101390005F900C94DB081F920F920FB60F921124EE
:1013A000CF92DF92EF92FF920F931F932F933F9371
:1013B0004F935F936F937F938F939F93AF93BF935D
:1013C000EF93FF930E9476060091D2011091D30112
:1013D0002091D4013091D5016B017C01C01AD10A52
:1013E000E20AF30A0091CC021091CD022091CE02C4
:1013F0003091CF020C151D052E053F05D8F46093E2
:10140000D2017093D3018093D4019093D501809140
:10141000DE019091DF01A091E001B091E101019620
:10142000A11DB11D8093DE019093DF01A093E00127
:10143000B093E101FF91EF91BF91AF919F918F9197
:101440007F916F915F914F913F912F911F910F91DC
:10145000FF90EF90DF90CF900F900FBE0F901F90F6
:1014600018958BE491E0A4E8B2E0FC014591559118
:10147000659174914D935D936D937D93049623E0F4
:10148000A033B20791F781E0809304010895FC0135
:1014900001900020E9F73197AF01481B590BBC01BF
:1014A00087E593E00C94A8068DE891E00C94470A38
:1014B000CF93DF930E949507EC010E94540A8C0F92
:1014C0009D1FDF91CF910895CF93DF93EC018DEFB6
:1014D00092E00E949507CE01DF91CF910C94580ABB
:1014E0008AEF92E00C94580A8F929F92AF92BF922B
:1014F0000F931F93CF93DF93CDB7DEB7A1970FB6AE
:10150000F894DEBF0FBECDBF19A2423008F44AE006
:101510008E010F5D1F4F842E912CB12CA12CA501A3
:1015200094010E944128E62FB901CA01EA30F4F47F
:10153000E05DD801EE938D01232B242B252B79F729
:1015400090E080E0109719F0CD010E94470AA19623
:101550000FB6F894DEBF0FBECDBFDF91CF911F91C4
:101560000F91BF90AF909F908F900895E95CE1CF6D
:101570004AE00C94740A682F70E090E080E04AE042
:101580000C94740ACF92DF92EF92FF92CF93DF9385
:1015900097FF19C06B017C018DE20E94B007EC013E
:1015A00066277727CB016C197D098E099F094AE0D0
:1015B0000E94740A8C0F9D1FDF91CF91FF90EF90D6
:1015C000DF90CF9008954AE0DF91CF91FF90EF90A8
:1015D000DF90CF900C94740ABC0190E080E04AE068
:1015E0000C94740A3F924F925F926F927F928F9207
:1015F0009F92AF92BF92CF92DF92EF92FF920F93A2
:101600001F93CF93DF9390E02FB7F8943EE2389F7B
:10161000E001399FD00D1124C05FDE4F8E889F8876
:10162000A88CB98CCA8CDB8CEC8CFD8C0889198950
:101630006A887B883C844A845D842FBF85E393E07D
:101640000E949507C501B4010E94C20A8FE293E08F
:101650000E949507C8010E94EC0A89E293E00E946B
:101660009507C3010E94EC0A83E293E00E9495076C
:10167000832D0E94BB0A8DE193E00E949507842D83
:101680000E94BB0A87E193E00E949507852D0E9486
:10169000BB0A80E193E00E949507C701B6010E9452
:1016A000C20A89E093E00E9495078B850E94BB0ADD
:1016B00082E093E00E949507CC80DD80EE80FF8081
:1016C000A7019601C701B6010E94C7298823C1F06E
:1016D00080E991E00E94470A8DE7DF91CF911F9149
:1016E0000F91FF90EF90DF90CF90BF90AF909F90C1
:1016F0008F907F906F905F904F903F900C94B007C9
:1017000046015701E894B7F82FEF3FEF4FE75FE747
:10171000C501B4010E94C72981110DC02FEF3FEF11
:101720004FE75FE7C501B4010E94F72618161CF4C5
:1017300084E991E0CFCF2FEF3FEF4FE75FE4C701A0
:10174000B6010E94C22918161CF488E991E0C2CFA4
:101750002FEF3FEF4FE75FECC701B6010E94F7267E
:1017600087FDF3CF20E030E0A901C701B6010E9458
:10177000F72687FF07C08DE20E94B007F7FAF094C2
:10178000F7F8F0942AE037ED43EA5BE3C701B601CE
:101790000E94B5284B015C010E9493296B017C01DA
:1017A0000E94FC269B01AC01C501B4010E94B42833
:1017B0004B015C014AE0C701B6010E94740A8EE247
:1017C0000E94B00720E030E040E251E4C501B401DE
:1017D0000E945D274B015C010E9493296B01CB01A4
:1017E0000E94EC0AB60190E080E00E94FC269B017A
:1017F000AC01C501B4010E94B42820E030E040E211
:1018000051E40E945D270E949329CB010E94EC0ABB
:1018100063CFCF92DF92EF92FF92CF93DF939091BD
:101820008302911126C1C82F809383021092150262
:10183000109214021092130210920F0210921002D2
:10184000109211021092120210920B0210920C02CE
:1018500010920D0210920E021092060210920502D2
:101860001092040280E00E94010981E00E940109B7
:101870008091B0029091B102A091B202B091B302F6
:10188000892B8A2B8B2B09F476C081E00E946E088D
:101890000E949B06609318027093190280931A02AB
:1018A00090931B028BEE92E00E9495078C2F0E9472
:1018B000BB0A80E20E94B007DFEFDC0FED2FF0E003
:1018C000EE0FFF1FED57FE4F808191810E9495071B
:1018D000D23008F054C088EE92E00E9495076091E3
:1018E000FF017091000280910102909102020E941A
:1018F000C20A8AEC92E00E9495076091880270917A
:10190000890280918A0290918B020E94C20AC230A1
:1019100071F487EC92E00E94950760918C027091BF
:101920008D0280918E0290918F020E94C20A809156
:101930000302811104C08BEA92E00E94950787E9B7
:1019400092E00E94950760919402709195028091B7
:101950009602909197020E94B80A81E992E00E9453
:1019600095078BE092E0DF91CF91FF90EF90DF90B1
:10197000CF900C94580A80E00E946E0893CFC33039
:1019800009F057C087E892E00E9495078091F40122
:101990009091F501CAE0D0E0BE010E94CC29CB01B4
:1019A0000E94EC0A8EE20E94B0078091F4019091AF
:1019B000F501BE010E94CC290E94EC0A82E792E068
:1019C0000E949507609198027091990280919A0205
:1019D00090919B022AE0C22ED12CE12CF12CA70180
:1019E00096010E94E029C9010E94EC0A8EE20E9441
:1019F000B007609198027091990280919A0290913B
:101A00009B02A70196010E94E029CB010E94EC0AEB
:101A10008BE592E00E9495076091A4027091A50267
:101A20008091A6029091A7020E94B80A85E592E0F3
:101A300096CFC43009F095CF86E492E00E949507D6
:101A4000C091EB01C0FF04C081E492E00E949507C1
:101A5000C1FF04C08CE392E00E949507C2FF04C05E
:101A600087E392E00E949507C3FF7BCF82E392E079
:101A700076CFDF91CF91FF90EF90DF90CF900895D8
:101A80008091C8029091C902A091CA02B091CB0284
:101A9000892B8A2B8B2B79F492E02BEC39E0309355
:101AA000010120930001809169008C7F892B809334
:101AB0006900E89A089593E0F0CF1F920F920FB655
:101AC0000F9211242F933F938F939F93AF93BF93C4
:101AD00080914F0390915003A0915103B091520314
:101AE00030914E0323E0230F2D3758F50196A11DA9
:101AF000B11D20934E0380934F0390935003A09306
:101B00005103B09352038091530390915403A091D9
:101B10005503B09156030196A11DB11D8093530347
:101B200090935403A0935503B0935603BF91AF9184
:101B30009F918F913F912F910F900FBE0F901F900B
:101B4000189526E8230F0296A11DB11DD2CF1F9232
:101B50000F920FB60F9211242F933F934F935F93E1
:101B60006F937F938F939F93AF93BF93EF93FF9365
:101B7000E0910201F09103010995FF91EF91BF916E
:101B8000AF919F918F917F916F915F914F913F9115
:101B90002F910F900FBE0F901F9018951F920F92CC
:101BA0000FB60F9211242F933F934F935F936F9330
:101BB0007F938F939F93AF93BF93EF93FF93E091A6
:101BC0000001F09101010995FF91EF91BF91AF9153
:101BD0009F918F917F916F915F914F913F912F9145
:101BE0000F900FBE0F901F9018951F920F920FB677
:101BF0000F9211242F933F934F935F936F937F9393
:101C00008F939F93AF93BF93EF93FF9387E593E0F9
:101C10000E942607FF91EF91BF91AF919F918F9105
:101C20007F916F915F914F913F912F910F900FBED8
:101C30000F901F9018951F920F920FB60F921124BC
:101C40002F938F939F93EF93FF93E0916703F0910E
:101C500068038081E0916D03F0916E0382FD1BC0EB
:101C60009081809170038F5F8F7320917103821731
:101C700041F0E0917003F0E0E95AFC4F958F8093BA
:101C80007003FF91EF919F918F912F910F900FBE55
:101C90000F901F9018958081F4CF1F920F920FB66E
:101CA0000F9211240F931F932F933F934F935F93A2
:101CB0006F937F938F939F93AF93BF9380914003D4
:101CC000909141030196909341038093400380914A
:101CD0001C01882309F475C080911F01882309F431
:101CE00069C080911B01882309F4D6C040912A0164
:101CF00050912B0160912C0170912D018091260152
:101D000090912701A0912801B0912901481B590BFE
:101D10006A0B7B0B20911D0180912E0190912F0168
:101D2000A0913001B0913101222309F4C6C0009185
:101D300038011091390120913A0130913B0104178B
:101D400015072607370708F4B8C0409134015091B1
:101D50003501609136017091370184179507A60708
:101D6000B70708F4EEC0841B950BA60BB70B809346
:101D70002E0190932F01A0933001B09331018091F7
:101D80002E0190912F01A0913001B0913101CD0130
:101D9000AA27BB27909323018093220180912201DF
:101DA00090912301892B31F481E090E090932301FD
:101DB0008093220180911E01882309F4CBC01092E8
:101DC0001E0180914A01882309F499C180914D0137
:101DD000882309F48EC180914901882309F43BC10D
:101DE000409158015091590160915A0170915B01E5
:101DF0008091540190915501A0915601B0915701E5
:101E0000481B590B6A0B7B0B20914B0180915C01A5
:101E100090915D01A0915E01B0915F01222371F06C
:101E2000009166011091670120916801309169016C
:101E3000041715072607370708F01EC140916001F7
:101E40005091610170E060E0BA0155274427841782
:101E50009507A607B70708F463C1481759076A072B
:101E60007B0708F016C10091620110916301209177
:101E7000640130916501081719072A073B0708F02C
:101E800064C1801B910BA20BB30B84179507A607A7
:101E9000B70708F00BC156C14091260150912701A8
:101EA000609128017091290180912A0190912B0164
:101EB000A0912C01B0912D0129CF40913201509178
:101EC000330170E060E0BA01552744278417950775
:101ED000A607B707E8F0481759076A077B0788F590
:101EE0000091340110913501209136013091370174
:101EF000081719072A073B0700F5801B910BA20B57
:101F0000B30B84179507A607B70708F030CF12C0A8
:101F10000091340110913501209136013091370143
:101F2000800F911FA21FB31F481759076A077B072D
:101F300008F01DCFDB01CA011ACF80E090E0DC0180
:101F4000E0CF40932E0150932F01609330017093A6
:101F5000310115CF25B1809122019091230140914B
:101F6000240150912501840F951F80323EE4930790
:101F700028F4909325018093240123CF80529E441E
:101F8000909325018093240185B192E0892785B93A
:101F900021FD17CF80911B01882309F441C0809156
:101FA000260190912701A0912801B0912901019665
:101FB000A11DB11D8093260190932701A0932801B4
:101FC000B093290180911D01882309F4FACE8091F4
:101FD0001B014091260150912701609128017091C9
:101FE0002901882349F180912A0190912B01A09128
:101FF0002C01B0912D01481759076A077B070CF493
:10200000E0CE10921C0110921D0110921F018091D0
:102010002001909121019093230180932201D1CE40
:102020008091260190912701A0912801B09129016A
:102030000197A109B109BECF80912A0190912B018E
:10204000A0912C01B0912D0184179507A607B70721
:102050000CF4B7CED6CF4091540150915501609108
:102060005601709157018091580190915901A091AA
:102070005A01B0915B01C4CE40916201509163015D
:10208000609164017091650184179507A607B707F1
:1020900048F440935C0150935D0160935E0170933E
:1020A0005F010CC0841B950BA60BB70B80935C01E2
:1020B00090935D01A0935E01B0935F0180915C01FC
:1020C00090915D01A0915E01B0915F01CD01AA27C1
:1020D000BB279093510180935001809150019091C2
:1020E0005101892B31F481E090E09093510180936C
:1020F000500180914C01882361F110924C01BF91F5
:10210000AF919F918F917F916F915F914F913F918F
:102110002F911F910F910F900FBE0F901F90189548
:102120000091620110916301209164013091650179
:10213000800F911FA21FB31F481759076A077B071B
:1021400008F0B4CFDB01CA01B1CF80E090E0DC0140
:102150009CCE2BB180915001909151014091520140
:1021600050915301840F951F80323EE4930728F469
:102170009093530180935201C2CF80529E4490931A
:102180005301809352018BB190E489278BB926FDCE
:10219000B6CF80914901882309F441C08091540150
:1021A00090915501A0915601B09157010196A11D42
:1021B000B11D8093540190935501A0935601B093A3
:1021C000570180914B01882309F499CF80914901EF
:1021D0004091540150915501609156017091570101
:1021E000882349F18091580190915901A0915A0199
:1021F000B0915B01481759076A077B070CF47FCF42
:1022000010924A0110924B0110924D0180914E01A3
:1022100090914F01909351018093500170CF809124
:10222000540190915501A0915601B0915701019729
:10223000A109B109BECF8091580190915901A09197
:102240005A01B0915B0184179507A607B7070CF4F4
:1022500056CFD6CF0F931F938091BC029091BD02B1
:10226000A091BE02B091BF02892B8A2B8B2BE1F487
:10227000809103028823B1F081E00091AC021091BB
:10228000AD022091AE023091AF024091FF0150911A
:1022900000026091010270910202041715072607DF
:1022A00037071CF080E001C081E01F910F91089575
:1022B00090E0AC01440F551F23E030E002C0220F34
:1022C000331F4A95E2F74091EB0150E02423352378
:1022D000232B91F0DC01A35FBE4F2C91223060F0E4
:1022E0002EE2289FF001299FF00D1124E05FFE4FA0
:1022F000838591E089278C930895CF93DF93209174
:102300008302222339F1243049F5C82FD0E0AE01F1
:10231000440F551F23E030E002C0220F331F4A95BF
:10232000E2F74091EB0150E024233523232BB1F059
:102330000E94D5079EE29C9FF0019D9FF00D112405
:10234000E05FFE4F938521E030E001C0220F9A95B7
:10235000EAF72823822FDF91CF91089521E0FACF69
:10236000CF93DF93CDB7DEB7C35DD1090FB6F89435
:10237000DEBF0FBECDBF789484B5826084BD84B5C6
:10238000816084BD85B5826085BD85B5816085BD70
:1023900080916E00816080936E0010928100809128
:1023A00081008260809381008091810081608093B0
:1023B0008100809180008160809380008091B100D5
:1023C00084608093B1008091B00081608093B00000
:1023D00080917A00846080937A0080917A00826094
:1023E00080937A0080917A00816080937A00809156
:1023F0007A00806880937A001092C1009FB7F894A9
:1024000084B783FB882780F98093CC0114BE9FBFDB
:1024100088E19FE00FB6F894A895809360000FBE06
:10242000909360008BEE84B915B880EE8AB91BB822
:1024300060E08EE00E943A0662E082E00E943A0686
:1024400062E083E00E943A0662E084E00E943A067D
:1024500062E08AE00E943A0662E08CE00E943A065E
:1024600061E08DE00E943A0680E00E946E088E01D5
:102470000F5F1F4F780110E000E06701C8010E9464
:102480001B28D7018D937D010F5F1F4F013B110565
:10249000A9F789819A81873C934A09F0C5C18B814C
:1024A000893009F0C1C1C6010E940E06C055DF4F38
:1024B00028813981C05BD0408217930709F0B4C1ED
:1024C0008CEAFE013496A4E8B2E001900D928A9560
:1024D000E1F7109204011092210110922001109254
:1024E000230110922201109225011092240111E083
:1024F00010931A0180E00E94210980E00E94F707F2
:1025000010924F0110924E01109251011092500101
:1025100010925301109252011093480181E00E94E1
:10252000210981E00E94F707109280008AE08093E1
:10253000810081E390E090938900809388008091EE
:102540006F00826080936F000E94400D0E949B0686
:102550006093E2017093E3018093E4019093E501BD
:102560000E949B066093E6017093E7018093E80167
:102570009093E9010E949B0660937F027093800212
:102580008093810290938202E0916703F091680347
:1025900082E08083E0916303F09164031082E09114
:1025A0006503F091660380E1808310926F03E091F0
:1025B0006B03F0916C0386E08083E0916903F091F6
:1025C0006A03808180618083E0916903F0916A03EE
:1025D000808188608083E0916903F0916A03808143
:1025E00080688083E0916903F0916A0380818F7D28
:1025F00080838EE593E00E9495078091CC0188232B
:1026000021F08BE393E00E9495070E94540A0E94F8
:10261000760620916C01222309F409C110926C0105
:1026200060934A0370934B0380934C0390934D0344
:10263000A8950091420310914303209144033091E7
:1026400045030F5F1F4F2F4F3F4F009342031093DF
:1026500043032093440330934503EFB7F89440912C
:1026600040035091410310924103109240034115E1
:102670005105A1F000913C0310913D0320913E03D0
:1026800030913F03040F151F211D311D00933C03A2
:1026900010933D0320933E0330933F03EFBF00911F
:1026A0003C0310913D0320913E0330913F03C090C5
:1026B0003803D0903903E0903A03F0903B030C15B7
:1026C0001D052E053F0509F4D9C00093380310936A
:1026D000390320933A0330933B03609334037093A0
:1026E000350380933603909337030E949B062B019A
:1026F0003C018091C0029091C102A091C202B091B0
:10270000C302181619061A061B0674F520918302D7
:1027100021112AC020911C01211104C020914A01DD
:10272000222311F140917F02509180026091810239
:102730007091820273016201C41AD50AE60AF70A8F
:102740008C159D05AE05BF0578F486EA93E00E94DE
:102750009507C701B6010E94B80A86E793E00E9478
:10276000580A85E00E94090C87E593E00E9406075D
:102770001816190614F00C94B41E87E593E00E9415
:10278000E406E0917E028A3021F08D3011F00C9445
:10279000A61EEE2349F3F0E0E25EFD4F10820E9498
:1027A0009B0660937F0270938002809381029093D6
:1027B0008202CE54DF4F19821882C25BD040CC54C3
:1027C000DF4F19821882C45BD040CA54DF4F198290
:1027D0001882C65BD0409E012E543F4FA901AEE146
:1027E000B2E0D12C8C91882309F472C063E0B62E3C
:1027F000DB1409F470C0FD018D918032E1F3893062
:10280000D1F3882309F464C0D394DA01ED93FD93E6
:10281000AD01DF018191882329F3803211F08930E5
:10282000C1F71C92DF01DECF0E94310A54CE009125
:102830004A0310914B0320914C0330914D035B01EF
:102840006C01A01AB10AC20AD30A96018501C09090
:102850004603D0904703E0904803F0904903C01628
:10286000D106E206F30608F0DBCE00934603109390
:1028700047032093480330934903D2CE0091340399
:10288000109135032091360330913703DC01CB01E1
:10289000801B910BA20BB30BC0903003D09031037F
:1028A000E0903203F0903303C816D906EA06FB061F
:1028B00008F01BCF012B022B032B09F416CF8093BA
:1028C000300390933103A0933203B09333030DCFC1
:1028D000DD2009F465C090E0D901ED91FD919D01E5
:1028E0008191882349F04FE9480F4A3108F480521A
:1028F000DF0111978C93F4CF9F5F9D1568F3C85447
:10290000DF4F1882C85BD040C754DF4F1882C95BC5
:10291000D040CE54DF4FE880F980C25BD040F70151
:1029200001900020E9F73197EE19FF09E23068F1D4
:10293000E150FF0BEE0DFF1D80819FEC980F993049
:1029400020F5C854DF4F8883C85BD0401082B3E0C5
:10295000DB1681F0E1E0DE1661F0CC54DF4F8881B8
:102960009981C45BD040CA54DF4F99838883C65B8A
:10297000D040D39498EBA92EB12CAC0EBD1ECC54F4
:10298000DF4FB982A882C45BD0406CE971E0C70117
:102990000E94982A892B39F488EF99E00E94580AFE
:1029A00010927E02E1CE61EA71E0C7010E94982A8E
:1029B000892B09F0FCC08CE395E00E94950780917B
:1029C00004010E94BB0A85E395E00E94950780916F
:1029D00083020E94BB0A8EE295E00E9495078091D7
:1029E000EB010E94BB0A87E295E00E949507809167
:1029F0001D020E94BB0A80E295E00E9495070E949A
:102A00009B0600917F0210918002209181023091FB
:102A10008202601B710B820B930B0E94B80A89E142
:102A200095E00E949507609146037091470380915D
:102A30004803909149030E94B80A82E195E00E9400
:102A400095078091D1010E94BB0A8BE095E00E941E
:102A500095076091FC027091FD028091FE029091B9
:102A6000FF020E94C20A84E095E00E9495078091CF
:102A7000CC010E94BB0A8CEF94E00E94950780E095
:102A80000E94F20A8CE20E94B00781E00E94F20AE2
:102A90008FEE94E00E9495076091FF017091000213
:102AA00080910102909102020E94B80A88EE94E09F
:102AB0000E949507809103020E94BB0A82EE94E077
:102AC0000E9495078091F4019091F5010E94EC0A13
:102AD0008BED94E00E9495078091F6010E94BB0A5D
:102AE00084ED94E00E949507809115020E94BB0A34
:102AF0008DEC94E00E949507809114020E94BB0A1D
:102B000085EC94E00E9495076091000370910103A9
:102B100080910203909103030E94C20A8EEB94E01D
:102B20000E949507809115028823D9F18090A80210
:102B30009090A902A090AA02B090AB02C0900702A8
:102B4000D0900802E0900902F0900A020E949B06D1
:102B5000C80CD91CEA1CFB1C97018601061B170B2D
:102B6000280B390BC901B80186169706A806B906C5
:102B700018F460E070E0CB010E94B80A87EB94E0A3
:102B80000E9495076091D6017091D7018091D8017C
:102B90009091D9010E94B80A83EB94E00E949507B6
:102BA000FFCE6FEF7FEFCB010E94C20AE7CF63EA4F
:102BB00071E0C7010E94982A892B59F48AEC99E0A8
:102BC0000E94580A80E00E94010981E00E940109E8
:102BD00036C065EA71E0C7010E94982A8C01892BF2
:102BE00089F587EC93EA9A83898389E08B838CEA61
:102BF000E4E8F2E0DE01149601900D928A95E1F787
:102C0000CE0101960E940E06C055DF4F998388833E
:102C1000C05BD0409E012F5F3F4F7901D701DD900F
:102C20007D01C8010E941B28D81621F06D2DC80116
:102C30000E9423280F5F1F4F013B110579F70E9467
:102C4000700AAECE68EA71E0C7010E94982A892B0B
:102C500059F40E94310A80E00E94210981E00E941B
:102C600021090E94400DEBCF6BEA71E0C7010E9481
:102C7000982A892BC9F580918302843069F4809168
:102C8000EB01882349F08BE899E00E94580A88E616
:102C900099E00E94640A84CE109283021092150279
:102CA000109214021092130210920F02109210024E
:102CB000109211021092120210920B0210920C024A
:102CC00010920D0210920E0210920602109205024E
:102CD0001092040210921C0280E00E946E0889E4A7
:102CE00099E00E94580AABCF6DEA71E0C7010E94DB
:102CF000982A892B09F061C08091090190910A01FD
:102D0000A0910B01B0910C01B7FD03C081E399E0E4
:102D1000C0CF80911C0181114DC080914A01811169
:102D200049C00E949B064B015C0110E000E0C12CF1
:102D3000D12C760180E1382E0E942906C80ED91EBA
:102D4000E11CF11C3A943110F7CF005F1F4F0E9435
:102D50009B06681979098A099B09603971408105C8
:102D6000910540F3980150E040E0C701B6010E9490
:102D70004128A8E8B3E10E9463282FEF33E040E048
:102D800050E00E94412869017A01EE24FF24C0929C
:102D90009C02D0929D02E0929E02F0929F028FEAE6
:102DA00094E00E949507C701B6010E94C20A0E94E2
:102DB000540AF6CD8DE199E06CCF6FEA71E0C7015E
:102DC0000E94982A892B41F51FB7F8941092DE01D2
:102DD0001092DF011092E0011092E1010E9476064C
:102DE0006093D2017093D3018093D4019093D50165
:102DF0001092DA011092DB011092DC011092DD01D9
:102E00000E949B066093E2017093E3018093E401CA
:102E10009093E5011FBF13CF61EB71E0C7010E94E2
:102E2000982A892B69F5E1E083E199E0DE1609F43F
:102E300030CF4AE050E070E060E0CC54DF4F888152
:102E40009981C45BD0400E9468242091D10197FFF2
:102E500007C010921C02277F2093D10120E00CC0F4
:102E600031E030931C0228602093D10121E0161636
:102E700017061806190694F7822F0E946E08DFCEF7
:102E800064EB71E0C7010E94982A892B91F5F1E06B
:102E90008FEF98E0DF1609F4FCCE4AE050E070E0D6
:102EA00060E0CC54DF4F88819981C45BD0400E94A0
:102EB0006824609305017093060180930701909345
:102EC00008012091D10197FF0FC0822F8D7F809341
:102ED000D1011092FF011092000210920102109293
:102EE000020210920302ABCE822F82608093D10146
:102EF000A6CE67EB71E0C7010E94982A892B29F5BD
:102F0000AA24A39482EF98E0DA1409F4C2CE4AE02E
:102F100050E070E060E0CC54DF4F88819981C45B61
:102F2000D0400E9468246093090170930A01809345
:102F30000B0190930C012091D10197FF03C0822FC8
:102F40008B7FD4CF822F8460D1CF62EB71E0C70139
:102F50000E94982A892B09F06CC003E0B02E80EE05
:102F600098E0DB1096CE4AE050E070E060E0CC5490
:102F7000DF4F88819981C45BD0400E9468246B0137
:102F80007C014AE050E070E060E0CA54DF4F888185
:102F90009981C65BD0400E9468244B015C0189ED99
:102FA00098E004E0C016D104E104F10408F071CE09
:102FB00021E030E00C2C01C0220F0A94EAF7809146
:102FC000EA01181419041A041B045CF5822B80937F
:102FD000EA018BE894E00E949507C60195958795D4
:102FE000882311F18EE79BE00E9495078DE20E94F5
:102FF000B0078C2D81708F5F0E94BB0A8DE794E033
:10300000181419041A041B0414F08BE694E00E94AF
:10301000580A9091EA018091D101992341F0816091
:1030200065CF20958223D3CF8CE79BE0DDCF8E7FC9
:103030005DCF6AEB71E0C7010E94982A892B09F0E5
:10304000A5C011E0D1121BC084E694E00E94950750
:10305000B4E8EB2EB2E0FB2E10E0D7016D917D912C
:103060008D919D917D010E94C20A1F5F1B3219F450
:1030700080E694E093CD8CE20E94B007EECFB3E0FF
:10308000DB1281C04AE050E070E060E0CC54DF4FDA
:1030900088819981C45BD0400E9468246B017C01C7
:1030A0004AE050E070E060E0CA54DF4F88819981C7
:1030B000C65BD0400E9468244B015C01EBE2CE1657
:1030C000D104E104F10448F08FEC98E00E949507E8
:1030D0006AE270E080E090E068CE9601220F331F34
:1030E000220F331FF901ED5DF74F85919591A59161
:1030F000B491F901E958F84F459155916591749152
:1031000088159905AA05BB0514F4D501C4012C57EF
:103110003D4F84179507A607B70714F4AC01BD010E
:10312000D9014D935D936D937C9313971092040195
:10313000C701B60164517109810991096A307105AD
:103140008105910550F425E030E040E050E00E9418
:10315000E029822F0E94210972CDB1E1CB16D10462
:10316000E104F10409F47DCDD701C6018397A109DB
:10317000B1090297A105B10508F061CD8DED8C0D67
:103180000E94F7075CCD88E597E083CD6CEB71E09A
:10319000C7010E94982A892BF1F06EEB71E0C701FC
:1031A0000E94982A892B11F40C94342401E0D01643
:1031B00079F0CC54DF4FE881F981C45BD040808145
:1031C000813309F4B5C133243394823309F4B1C196
:1031D00081E097E05ECDE1E0DE1649F0CC54DF4FB0
:1031E000E881F981C45BD0408081803339F06EEB97
:1031F00071E0C7010E94982A892B89F51FB7F894BE
:10320000109241031092400310923C0310923D0330
:1032100010923E0310923F03109242031092430318
:1032200010924403109245030E949B066093CD01C7
:103230007093CE018093CF019093D00110924603FA
:1032400010924703109248031092490310923003E2
:10325000109231031092320310923303DBCD8FB7FB
:10326000F894A0903C03B0903D03C0903E03D090F2
:103270003F03C653DF4FA882B982CA82DB82CA5C91
:10328000D040C0904203D0904303E0904403F090BC
:103290004503C253DF4FC882D982EA82FB82CE5CEB
:1032A000D040C090CD01D090CE01E090CF01F09001
:1032B000D0018FBF0E949B068B019C010C191D0938
:1032C0002E093F09C654DF4F088319832A833B83A5
:1032D000CA5BD04081E597E00E949507C654DF4F56
:1032E000688179818A819B81CA5BD0400E94B80A3B
:1032F00086E497E00E949507C654DF4F2881398104
:103300004A815B81CA5BD040232B242B252B09F4F7
:1033100003C1C653DF4F688179818A819B81CA5C72
:10332000D04028EE33E040E050E00E94FF29C65430
:10333000DF4FC880D980EA80FB80CA5BD04056014D
:103340006701E12CF12C8701CE53DF4FA882C25CCC
:10335000D040CD53DF4FB882C35CD040CC53DF4F59
:10336000C882C45CD040CB53DF4FD882C55CD0400C
:10337000CA53DF4FE882C65CD040C953DF4FF882A2
:10338000C75CD040C853DF4F0883C85CD040C753E8
:10339000DF4F1883C95CD040E12CF12C00E010E035
:1033A0000E942C2AB901CA010E94B80A8DE397E055
:1033B0000E949507C654DF4FE880F9800A811B817F
:1033C000CA5BD04060E070E0CB01E114F10401057C
:1033D000110519F1C801B70120E43CE940E050E0D3
:1033E0000E94FF29E8EEAE2EF3E0BF2EC12CD12CB7
:1033F000E12CF12C00E010E00E942C2A4901CA01C6
:10340000B401C653DF4F088119812A813B81CA5C10
:10341000D040601B710B820B930B0E94C20A81E3A8
:1034200097E00E949507C654DF4F288139814A8171
:103430005B81CA5BD040232B242B252B09F472C05F
:10344000C253DF4F688179818A819B81CE5CD040F5
:1034500028EE33E040E050E00E94FF29C654DF4FE1
:10346000C880D980EA80FB80CA5BD04056016701E2
:10347000E12CF12C8701C654DF4FA882CA5BD040F3
:10348000C554DF4FB882CB5BD040C454DF4FC882F5
:10349000CC5BD040C354DF4FD882CD5BD040C25408
:1034A000DF4FE882CE5BD040C154DF4FF882CF5B64
:1034B000D040C054DF4F0883C05CD040CF53DF4FB3
:1034C0001883C15CD040E12CF12C00E010E00E9498
:1034D0002C2AB901CA010E94B80A81E297E00E9431
:1034E000950760914603709147038091480390913E
:1034F00049030E94B80A82E197E00E949507609113
:1035000030037091310380913203909133030E9414
:10351000B80A8FE097E042CB60E070E0CB010E94F8
:10352000C20A44CF60E070E0CB010E94C20AD5CF4E
:10353000312CA32CB12CC653DF4FB982A882CA5CB0
:10354000D04061EC71E0C7010E94982A892B09F4F0
:1035500065C063EC71E0C7010E94982A892B09F0CD
:10356000ADC003E0D012AAC0CA54DF4F8881998150
:10357000C65BD0400E947F256B017C0120E030E0DB
:10358000A9010E94F72687FF03C0C12CD12C760128
:1035900015E0319EF0011124EE0FFF1FEE0FFF1F0B
:1035A000EC52FD4F60817181828193810E94FE26E1
:1035B000A70196010E945D2720E030E040E752E439
:1035C0000E9421296B017C0120E030E44CE956E4A3
:1035D0000E94C22918163CF4C12C30E4D32E3CE9D9
:1035E000E32E36E4F32E20E030E040E05FE3C70155
:1035F000B6010E94B5280E9493292EE2C653DF4FE0
:10360000A880B980CA5CD0402A9DF0012B9DF00DA6
:103610001124E05FFE4F718B608B31C053E0B52EFB
:10362000DB1097CF4AE050E070E060E0CA54DF4F13
:1036300088819981C65BD0400E94682461320EE483
:1036400070078105910524F060E27EE480E090E05F
:10365000DC01CB01B7FF03C080E090E0DC012EE28B
:10366000C653DF4FA880B980CA5CD0402A9DF001C4
:103670002B9DF00D1124E05FFE4F918B808B848594
:10368000882319F08785811114C08EE2C653DF4F5D
:10369000C880D980CA5CD0408C9DF0018D9DF00D12
:1036A0001124E05FFE4F80899189938B828B17866E
:1036B000C6CA8089918993A382A3C1CA69EA71E0CD
:1036C000C7010E94982A892B09F04BC003E0D01251
:1036D00048C08EE2C653DF4FA880B980CA5CD04094
:1036E0008A9DF0018B9DF00D1124E05FFE4F8485D3
:1036F000882319F089EE96E0CCCACA54DF4FE881DE
:10370000F981C65BD040808141E0803309F440E01C
:103710009EE2C653DF4FC880D980CA5CD0409C9DD2
:10372000F0019D9DF00D1124E05FFE4F90859923DF
:1037300021F041E0803309F040E08EE2C653DF4FD4
:10374000E880F980CA5CD0408E9DF0018F9DF00D1D
:103750001124E05FFE4F4387618180810E94C7088A
:103760006ECA6FE971E0C7010E94982A892B09F09F
:103770007CC0832D0E945811832D0E94D5079EE2A4
:10378000C653DF4F08811981CA5CD040909F9001D9
:10379000919F300D11248901005F1E4FD8011B96A7
:1037A0002C9190E002C0959587952A95E2F780FFCD
:1037B00003C08DEB96E06DCA832D0E947D11882396
:1037C00019F083EA96E065CA0E942A11811103C0AC
:1037D0008AE796E05ECAF80180899189892B19F4FD
:1037E00087E596E056CA8485811129CAFF24F3949F
:1037F000F786168E178E10A211A28089918993A345
:1038000082A364A575A590E080E0CB0177276627A9
:1038100020E43CE940E050E00E944128D801949621
:103820002D933D934D935C93979755961C921E92C2
:1038300054971C96FC921C971B961C9185E594E06E
:103840000E9495078EE79BE0311002C08CE79BE059
:103850000E94950788E394E0111102C08BE194E087
:103860000E9495070E94540AEAC966EA71E0C701FE
:103870000E94982A892B91F48CE496E00E94950787
:103880008EE79BE0311002C08CE79BE00E94950719
:103890008BE396E00E94580A832D98C965EC71E08D
:1038A000C7010E94982A892BB9F58EE2C653DF4FD3
:1038B000A880B980CA5CD0408A9DF0018B9DF00D34
:1038C0001124E05FFE4F8485882319F083E296E09F
:1038D000E0C9C688D788E08CF18C168A178A108ECA
:1038E000118E128E138E148E158E88E094E00E9435
:1038F00095078EE79BE0311002C08CE79BE00E94A9
:1039000095078CEF93E00E949507C701B6010E94CE
:10391000C20A8DEE93E0E5C967EC71E0C7010E9431
:10392000982A892B11F593E0B92EDB101EC08EE288
:10393000C653DF4FC880D980CA5CD0408C9DF0014F
:103940008D9DF00D1124E05FFE4FCA54DF4FA8811A
:10395000B981C65BD04081E09C91903309F480E04E
:103960008287832D0E94DB086AC969EC71E0C70178
:103970000E94982A892B09F0E5C183E0E82EDE1029
:10398000E1C12EE2C653DF4F08811981CA5CD040E5
:10399000209FC001219F900D11249C01205F3E4F6C
:1039A0005901D9011C968C91882319F08BE096E07F
:1039B00070C94AE050E070E060E0CA54DF4F88818F
:1039C0009981C65BD0400E9468246B017C01DC01B8
:1039D000CB01BB0F880B982FDC01482F4170F501FC
:1039E0002085222319F08095482F41708EE2C6531E
:1039F000DF4FA880B980CA5CD0408A9DF0018B9DC2
:103A0000F00D1124E05FFE4F4387618180810E94A9
:103A1000C708F7FE2CC0F094E094D094C094C11C69
:103A2000D11CE11CF11C832D0E945811832D0E9492
:103A3000D5079EE2C653DF4F08811981CA5CD0408A
:103A4000909F9001919F300D1124A901405F5E4F1E
:103A50005A01DA011B962C9190E002C0959587954A
:103A60002A95E2F780FF0CC089ED95E012C985E048
:103A700096E0C114D104E104F10409F40AC9D3CFDA
:103A8000832D0E947D11882319F08FEB95E001C9E9
:103A90000E942A11811103C086E995E0FAC8F50158
:103AA00080899189892B19F483E795E0F2C886898A
:103AB0009789A08DB18D2385B701A601211107C07B
:103AC00044275527BA014C195D096E097F09840FF7
:103AD000951FA61FB71F2EE2C653DF4FA880B980DF
:103AE000CA5CD0402A9DF0012B9DF00D1124E05FAF
:103AF000FE4F828F938FA48FB58F81E085878FB71C
:103B0000F89406891789208D318DC654DF4F0883BC
:103B100019832A833B83CA5BD040828C938CA48C0C
:103B2000B58C8FBF84EE93E00E9495078EE79BE0F3
:103B3000311002C08CE79BE00E94950785ED93E071
:103B40000E949507C701B6010E94C20A88EC93E063
:103B50000E949507C654DF4F688179818A819B81D5
:103B6000CA5BD0400E94C20A81EC93E00E94950794
:103B7000C501B4010E94C20A0E94540A8EE2C653D3
:103B8000DF4FA880B980CA5CD0408A9DF0018B9D30
:103B9000F00D1124E05FFE4F24A535A52115310558
:103BA00009F4CAC081E08787168E178E10A211A271
:103BB000138A128AA90170E060E0C654DF4F48837F
:103BC00059836A837B83CA5BD040A089B1894D0148
:103BD000440F551F661F771FCE53DF4F488359830D
:103BE0006A837B83C25CD0409D010E94A528CE538E
:103BF000DF4F288139814A815B81C25CD0400E94BD
:103C000041282C153D054E055F0508F46DC0C654CE
:103C1000DF4F288139814A815B81CA5BD040C7016F
:103C2000B6010E943128AB01BC0180E090E0A0E029
:103C3000B0E4481759076A077B0740F4F2E0B695ED
:103C4000A79597958795FA95D1F7F3CF812C912C6D
:103C500054010097A105B10539F18C019D01080DB2
:103C6000191D2A1D3B1DC654DF4F088319832A8363
:103C70003B83CA5BD040B694A7949794879440172F
:103C800051076207730740F0401B510B620B730B27
:103C9000880E991EAA1EBB1E02E0B695A7959795A1
:103CA00087950A95D1F7D5CF81149104A104B10469
:103CB00021F4812C912C54018394A5019401C50118
:103CC000B4010E943128CE53DF4F288139814A81C7
:103CD0005B81C25CD0400E944128C216D306E40634
:103CE000F50610F4A70196018EE2C653DF4FC88097
:103CF000D980CA5CD0408C9DF0018D9DF00D1124BF
:103D0000E05FFE4F93A282A220A731A742A753A74C
:103D10008EE2C653DF4FE880F980CA5CD0408E9DAA
:103D2000F0018F9DF00D1124E05FFE4F158A148A7B
:103D300081E084870C941F16178680899189938B64
:103D4000828BE6CF8DE495E00C944916EF3510F0A8
:103D50000C94B41391E09E0F90937E02F0E0E25E2B
:103D6000FD4F80830C94B4138091E2019091E301A4
:103D7000A091E401B091E50193018201081B190BA8
:103D80002A0B3B0BD901C8018C329140A105B1052A
:103D900008F4A8C02FB7F8948091DE019091DF015C
:103DA000A091E001B091E1012FBF4091E20150915B
:103DB000E3016091E4017091E50163015201A41AED
:103DC000B50AC60AD70AC654DF4FA882B982CA828A
:103DD000DB82CA5BD040AB28AC28AD2809F482C096
:103DE0004091DA015091DB016091DC017091DD01BD
:103DF0006C017D01C41AD50AE60AF70A8093DA013C
:103E00009093DB01A093DC01B093DD014092E201CD
:103E10005092E3016092E4017092E501809090027B
:103E200090909102A0909202B090930218141904FD
:103E30001A041B0424F0812C912C54018394A8EEC5
:103E4000B3E0A70196010E946328C654DF4F288182
:103E500039814A815B81CA5BD0400E94412820930E
:103E6000D6013093D7014093D8015093D901A0E6F1
:103E7000BAEEA70196010E946328C654DF4F28813D
:103E800039814A815B81CA5BD0400E944128CA01C6
:103E9000B901A50194010E9441282093FF013093AC
:103EA0000002409301025093020281E0CD28CE2807
:103EB000CF2809F480E0809303028091050190915E
:103EC0000601A0910701B0910801B7FD23C18093BD
:103ED000FF0190930002A0930102B093020281E0DF
:103EE000809303028091E6019091E701A091E8019F
:103EF000B091E90173016201C81AD90AEA0AFB0A02
:103F0000D701C6014497A105B10508F486C04092C7
:103F1000E6015092E7016092E8017092E901A0E1A8
:103F2000FA2E10E000E00E942906080F191FFA94EB
:103F3000F110F9CF9801F4E036952795FA95E1F75D
:103F4000A8E8B3E10E94A5282FEF33E040E050E05D
:103F50000E94412869017A0180909C0290909D0204
:103F6000A0909E02B0909F02281939094A095B0966
:103F700057FF07C050954095309521953F4F4F4FC3
:103F80005F4FAAE0B0E00E9463282091A002309128
:103F9000A1024091A2025091A30212161306140628
:103FA000150624F021E030E040E050E00E94E029D6
:103FB0003093F5012093F401C6018D5291408F3268
:103FC0009141B8F481E014EC811619E09106A10446
:103FD000B10481F425E3C21628E0D206E104F1041D
:103FE00040F081E034E5C3163BE0D306E104F10480
:103FF00008F080E08093F6018091090190910A0118
:10400000A0910B01B0910C01B7FD9BC09093F501FD
:104010008093F40181E08093F6018091FC0210E02E
:1040200082FF1CC099B183B193FB112710F994FD55
:10403000126082FD146084FD18608091B802909136
:10404000B902A091BA02B091BB02892B8A2B8B2BAB
:1040500011F48FE018278091EA01182B80910F014D
:10406000811709F475C010930F014092EC01509232
:10407000ED016092EE017092EF0180918302811157
:104080001AC080918402811196C11092150210927B
:1040900014021092130210920F021092100210924A
:1040A00011021092120210920B0210920C02109246
:1040B0000D0210920E0226E1C22E22E0D22EF12C29
:1040C000E12C3EE2332E3E9CF0013F9CF00D11248A
:1040D000E05FFE4F0585D6018C91882309F47BC3F0
:1040E000011179C39FB7F89486889788A08CB18C0A
:1040F000428C538C648C758C83859FBF11E0882320
:1041000009F41CC384149504A604B7040CF01CC362
:1041100010E01AC38091FC0280FDE4CE1092FF01F2
:1041200010920002109201021092020210920302F9
:104130001092D6011092D7011092D8011092D90195
:10414000D1CE8091FC0281FD68CF1092F60165CF3F
:104150008091EB01811709F4CBC04091EC015091A3
:10416000ED016091EE017091EF0163015201A41A1B
:10417000B50AC60AD70AB601A50144315105610541
:10418000710508F4B5C01093EB01F12CE12CC12EA0
:10419000D12CC253DF4FD982C882CE5CD040A82E2A
:1041A000B12CCE52DF4FB982A882C25DD0409E2C86
:1041B000C701880F991FC253DF4F28813981CE5C18
:1041C000D040082E02C0359527950A94E2F7022FB9
:1041D0000370C654DF4F0883CA5BD040A02EB12CB9
:1041E000CE52DF4F28803980C25DD04002C0359466
:1041F00027948A95E2F723E022223324A214B30401
:1042000009F46DC03EE23E9DF0013F9DF00D11248A
:10421000E05FFE4F8484EE2009F4ACC04EE75BE023
:10422000CE53DF4F59834883C25CD040D12CC12C80
:10423000C5010C2C02C0959587950A94E2F7082FCA
:10424000017071E07C0DC653DF4F7883CA5CD040AB
:10425000C1010C2C02C0959587950A94E2F78170F4
:1042600099270817190651F18DEB9AE00E949507DE
:10427000CE53DF4F88819981C25CD0400E94950760
:104280008DE20E94B007C653DF4F8881CA5CD040E0
:104290000E94BB0A81EB9AE0011102C081EA9AE018
:1042A0000E949507002341F08BE49AE0811002C040
:1042B0008DEF99E00E9495070E94540ACA94CD2878
:1042C00009F061C0C654DF4FA880CA5BD040A1107E
:1042D0005EC0F701E35FFE4F52E0B52EB082EA9474
:1042E000EF2809F043C0112319F084E00E94090C63
:1042F00080911C018823D1F080E00E94D507209195
:104300001B0190E002C0959587952A95E2F780FF02
:104310000DC080ED9AE00E9495078CE79BE00E941B
:1043200095070E94540A80E00E94010980914A0189
:10433000882309F4A2CE81E00E94D507209149018B
:1043400090E002C0959587952A95E2F780FF95CE7B
:1043500080ED9AE00E9495078EE79BE00E9495070A
:104360000E94540A81E00E94010987CEEE24E39462
:10437000F12C1DCF6CE77BE0CE53DF4F7983688350
:10438000C25CD04053CFCC24C394D12C51CF8820D1
:1043900071F04EE2C42ECE9CF001CF9CF00D1124A2
:1043A000E05FFE4F8385F701E35FFE4F8083892D39
:1043B0000E94010994CF909115029111A9C080919A
:1043C0002C0390912D03A0912E03B0912F03892BE4
:1043D0008A2B8B2BA1F081E080931502409207027B
:1043E000509208026092090270920A02109214021E
:1043F0001092060210920502109204025CCE809187
:104400000302882309F442C08091FF0190910002C9
:10441000A0910102B0910202181619061A061B0695
:1044200044F520911302222389F040910B02509110
:104430000C0260910D0270910E024C5E5F4F6F4F47
:104440007F4F481759076A077B0784F440920F0291
:1044500050921002609211027092120280930B022D
:1044600090930C02A0930D02B0930E0221E02093D2
:1044700013024091AC025091AD026091AE02709176
:10448000AF02481759076A077B07B4F180911302FE
:10449000882309F4ADCF8091000390910103A0918E
:1044A0000203B09103030097A105B10509F4A0CF61
:1044B00040910F025091100260911102709112020E
:1044C00063015201A41AB50AC60AD70AB601A501AA
:1044D000481759076A077B0708F48ACF81E0809361
:1044E00015024092070250920802609209027092EF
:1044F0000A02809314027CCF81E0809315024092DF
:104500000702509208026092090270920A0270CF6C
:1045100040910702509108026091090270910A02CD
:1045200093018201041B150B260B370B4091A80247
:104530005091A9026091AA027091AB02041715076D
:104540002607370708F4B7CD9FEF980F923038F061
:10455000843039F0853009F0C9C090E01DC0823048
:10456000E1F740918C0250918D0260918E02709122
:104570008F0214161506160617067CF791E00091B7
:10458000FF011091000220910102309102020417F4
:104590001507260737070CF3209103022223B1F0F9
:1045A000009188021091890220918A0230918B0239
:1045B0004091FF015091000260910102709102024E
:1045C00004171507260737070CF470C02091040262
:1045D00021114AC021E0209304024092FB01509235
:1045E000FC016092FD017092FE01992309F480C0E4
:1045F0009091050291115DC091E090930502409267
:10460000F7015092F8016092F9017092FA0183501B
:10461000833008F08CC08091F601882309F487C0AC
:104620008091F4019091F501B0E0A0E040919802F2
:104630005091990260919A0270919B02841795079C
:10464000A607B7070CF473C080910602811153C00E
:1046500081E0809306024092F0015092F101609255
:10466000F2017092F30127CD4091FB015091FC01C2
:104670006091FD017091FE0193018201041B150BF5
:10468000260B370B4091940250919502609196024F
:1046900070919702041715072607370708F4A5CF6E
:1046A00081E0911182E00E94090C05CD1092040274
:1046B0009CCF4091F7015091F8016091F901709100
:1046C000FA0193018201041B150B260B370B409155
:1046D000940250919502609196027091970204178E
:1046E00015072607370708F492CFDCCF1092040293
:1046F000109205028CCF8091F0019091F101A09170
:10470000F201B091F301481A590A6A0A7B0A8091B2
:10471000A4029091A502A091A602B091A70248160A
:1047200059066A067B0608F4C6CC83E0BCCF10921B
:104730000602C1CCEE24E394F12CC5CC48145904F4
:104740006A047B040CF4E4CC80E89BE00E949507AB
:104750008EE79BE0E114F10411F48CE79BE00E94EA
:1047600095078CE69BE0111102C08CE59BE00E944E
:10477000950711111EC0109183021123D1F08CE412
:104780009BE00E949507812F0E94BB0A80E20E9455
:10479000B007E0918302E1508CE19BE0E53038F412
:1047A000F0E0EE0FFF1FED57FE4F808191810E94D8
:1047B000950780E49BE00E949507C301B2010E9427
:1047C000C20A8BE39BE00E949507C501B4010E94D9
:1047D000C20A0E94540AF60101936F01EA94EF287D
:1047E00009F0A8CF80911D02882371F180911C02ED
:1047F00081112AC08091B0029091B102A091B202C1
:10480000B091B3020197A105B105F1F40E949B0696
:10481000009118021091190220911A0230911B0286
:10482000601B710B820B930B0091B4021091B502C7
:104830002091B6023091B702601771078207930783
:1048400018F080E00E946E0880E090E0892B11F45F
:104850000C9407130E941207882311F40C94071379
:104860000E9400000C940713AA24A394DA100C945D
:10487000EE180C94FE18E7E5F3E01382128288EE3E
:1048800093E0A0E0B0E084839583A683B78385E7B7
:1048900091E09183808385EC90E09587848784EC18
:1048A00090E09787868780EC90E0918B808B81ECFD
:1048B00090E0938B828B82EC90E0958B848B86ECDE
:1048C00090E0978B868B118E128E138E148E089526
:1048D000B0E0A0E0EEE6F4E20C946F285C016B011E
:1048E0007A016115710519F0FB0191838083E11450
:1048F000F10451F0C7010297839730F040E030E0B7
:1049000020E090E072C05E01E5012196F501108182
:10491000812F90E00E948325892BA9F71D3201F594
:104920002196F501118101E0E114F10409F4DAC0E6
:10493000F0E1EF16F10409F082C0103359F48881D8
:104940008F7D883509F076C0198122960260F0E1EA
:10495000EF2EF12C812C912CA12C88E0B82E8CC04C
:104960001B3221F4E5012296F501118100E0DCCF34
:10497000EAE0EE16F10409F4BBC0F0E1EF16F10431
:1049800009F06DC0E7CF78E0E72EF12C812C912C57
:10499000A12C60E1B62E70C03FE9310F3A3128F406
:1049A00039EA332E80C021E09AC0302F3170C11413
:1049B000D10431F0222309F12197F601D183C0837C
:1049C00027FF21C060E070E080E090E8311104C072
:1049D0006FEF7FEF8FEF9FE722E230E03093F50338
:1049E0002093F403462F372F282F642F732F822F05
:1049F000CDB7DEB7E1E10C948B2801FF04C022970C
:104A0000F601D183C083332341F090958095709552
:104A100061957F4F8F4F9F4FE5CF97FFE3CF82E2A6
:104A200090E09093F5038093F4036FEF7FEF8FEFA7
:104A30009FE7D8CF10E3E114F10409F4A4CF28E0F4
:104A4000E216F10409F4A2CF0CF092CF812C912C44
:104A5000A12CE0E4BE2E82E0E816F10469F060E0EB
:104A600070E080E090E897010F2C000C440B550B90
:104A70000E94412849015A0120E060E070E0CB012A
:104A800027010F2C000C66087708FE0150ED352E2B
:104A9000310E39E0331540F43FEB310F3A3108F075
:104AA0007BCF49EC342E310E3E141F040CF07DCF29
:104AB00027FD15C086169706A806B90678F0A3014B
:104AC00092010E943128630D711D811D911D61307D
:104AD0007105810520E8920708F465CF2FEF219634
:104AE0001081D3CF103309F42ACF2AE0E22EF12C23
:104AF0009CEC892E982CA82C9CE0B92EBDCF662763
:104B000077270C948C2591110C94DC26803219F0B7
:104B100089508550C8F70895B0E0A0E0E2E9F5E2D9
:104B20000C9474285C017B016115710519F0DB019F
:104B30008D939C9385010F5F1F4FF501D0818D2FC1
:104B400090E00E9483256C01892BB9F5DD32B9F51F
:104B50000F5F1F4FD5011196DC91C1E05801F1E0C4
:104B6000AF1AB10843E050E060E770E0C5010E9471
:104B7000DF26892B69F5680182E0C80ED11C45E06B
:104B800050E06BE670E0C6010E94DF26892B21F41D
:104B9000680197E0C90ED11CE114F10419F0D701A6
:104BA000CD92DC9260E070E080E89FEFC111FFC021
:104BB00060E070E080E89FE7FAC05801BBCFDB32CD
:104BC00029F485010E5F1F4FF501D181C0E0C6CFEA
:104BD00043E050E068E670E0C5010E94DF26892BC3
:104BE000E9F0F80110E000E020E030E0A9015F0109
:104BF000B0ED8B2E8D0E89E08815C8F19C2E68943F
:104C000091F88C2F8870C2FF16C0811102C00F5F0F
:104C10001F4F3196D501DC91C92DE9CFE114F10484
:104C200029F00E5F1F4FF7011183008360E070E0F1
:104C300080EC9FE7BCC0882311F001501109A5E06A
:104C4000B0E00E9463289B01AC01220F331F441F78
:104C5000551F280D311D411D511D283999E939076E
:104C6000490799E15907A8F2C6609C2ED2CFAEEF52
:104C70008A1206C0C3FD3CC09C2E689493F8C9CF2D
:104C8000DF7DD534A9F580818D3239F4C061DF0133
:104C90001296818162E070E006C0DF018B32C1F3C1
:104CA000119661E070E080535D01A61AB70A8A3060
:104CB000F8F4E0E8CE16ECE0DE065CF4B601660F30
:104CC000771F660F771FC60ED71ECC0CDD1CC80ED3
:104CD000D11C5D01FFEFAF1ABF0A8C9180538A305F
:104CE000A8F1C4FF03C0D194C194D1080C0D1D1DBF
:104CF000C1FF09C0E114F10431F081E0A81AB10844
:104D0000D701AD92BC92CA01B9010E94FC26C370C2
:104D1000C33009F490584B015C0120E030E0A90158
:104D20000E94F726882309F440C0CFE9D0E017FF9E
:104D300005C0119501951109C7E8D0E06E01B8E1F1
:104D4000CB1AD10880E2E82EF12C0FC0D501B1CFEB
:104D5000FE0125913591459154910E191F09C50108
:104D6000B4010E945D274B015C01D501C4010E1501
:104D70001F0574F72497F594E794CC16DD06A9F780
:104D80008A2F880F8B2F881F8F3F49F020E030E05B
:104D9000A901C501B4010E94F726811106C082E273
:104DA00090E09093F5038093F403C501B401CDB76F
:104DB000DEB7ECE00C949028992788270895FB0132
:104DC000DC014150504088F08D9181341CF08B35CE
:104DD0000CF4805E659161341CF06B350CF4605E00
:104DE000861B611171F3990B0895881BFCCF0E94FB
:104DF000392708F481E00895E89409C097FB3EF450
:104E000090958095709561957F4F8F4F9F4F992317
:104E1000A9F0F92F96E9BB279395F6958795779595
:104E20006795B795F111F8CFFAF4BB0F11F460FF55
:104E30001BC06F5F7F4F8F4F9F4F16C0882311F0AD
:104E400096E911C0772321F09EE8872F762F05C0C1
:104E5000662371F096E8862F70E060E02AF09A955C
:104E6000660F771F881FDAF7880F9695879597F951
:104E70000895990F0008550FAA0BE0E8FEEF1616EB
:104E80001706E807F907C0F012161306E407F5073E
:104E900098F0621B730B840B950B39F40A2661F0B2
:104EA000232B242B252B21F408950A2609F4A14055
:104EB000A6958FEF811D811D08950E9470270C9487
:104EC000E1270E94D32738F00E94DA2720F09523AB
:104ED00011F00C94CA270C94D02711240C94152897
:104EE0000E94F22770F3959FC1F3950F50E0551F74
:104EF000629FF001729FBB27F00DB11D639FAA272F
:104F0000F00DB11DAA1F649F6627B00DA11D661F7D
:104F1000829F2227B00DA11D621F739FB00DA11D9E
:104F2000621F839FA00D611D221F749F3327A00D58
:104F3000611D231F849F600D211D822F762F6A2FF4
:104F400011249F5750409AF0F1F088234AF0EE0F59
:104F5000FF1FBB1F661F771F881F91505040A9F786
:104F60009E3F510580F00C94CA270C9415285F3F92
:104F7000E4F3983ED4F3869577956795B795F795C2
:104F8000E7959F5FC1F7FE2B880F911D969587953A
:104F900097F9089597F99F6780E870E060E00895B9
:104FA0009FEF80EC089500240A9416161706180641
:104FB0000906089500240A9412161306140605061D
:104FC0000895092E0394000C11F4882352F0BB0FAE
:104FD00040F4BF2B11F460FF04C06F5F7F4F8F4F11
:104FE0009F4F089557FD9058440F551F59F05F3F4C
:104FF00071F04795880F97FB991F61F09F3F79F0FB
:1050000087950895121613061406551FF2CF46957C
:10501000F1DF08C0161617061806991FF1CF8695FE
:105020007105610508940895E894BB2766277727E2
:10503000CB0197F90895F999FECF92BD81BDF89AF9
:10504000992780B50895262FF999FECF1FBA92BDF2
:1050500081BD20BD0FB6F894FA9AF99A0FBE019659
:105060000895DB018F939F930E946328BF91AF91B6
:10507000A29F800D911DA39F900DB29F900D1124B2
:105080000895A1E21A2EAA1BBB1BFD010DC0AA1F89
:10509000BB1FEE1FFF1FA217B307E407F50720F0A1
:1050A000A21BB30BE40BF50B661F771F881F991F1C
:1050B0001A9469F760957095809590959B01AC0165
:1050C000BD01CF0108950E94A528A59F900DB49F12
:1050D000900DA49F800D911D112408952F923F9251
:1050E0004F925F926F927F928F929F92AF92BF92F8
:1050F000CF92DF92EF92FF920F931F93CF93DF93A4
:10510000CDB7DEB7CA1BDB0B0FB6F894DEBF0FBE00
:10511000CDBF09942A88398848885F846E847D844D
:105120008C849B84AA84B984C884DF80EE80FD804F
:105130000C811B81AA81B981CE0FD11D0FB6F894C5
:10514000DEBF0FBECDBFED010895A29FB001B39F9A
:10515000C001A39F700D811D1124911DB29F700D80
:10516000811D1124911D08955058BB27AA270E9424
:10517000CC280C94E1270E94D32738F00E94DA272C
:1051800020F039F49F3F19F426F40C94D0270EF444
:10519000E095E7FB0C94CA27E92F0E94F22758F309
:1051A000BA17620773078407950720F079F4A6F50C
:1051B0000C9414280EF4E0950B2EBA2FA02D0B01A1
:1051C000B90190010C01CA01A0011124FF27591B4C
:1051D00099F0593F50F4503E68F11A16F040A22F52
:1051E000232F342F4427585FF3CF469537952795C3
:1051F000A795F0405395C9F77EF41F16BA0B620BC2
:10520000730B840BBAF09150A1F0FF0FBB1F661F08
:10521000771F881FC2F70EC0BA0F621F731F841F4B
:1052200048F4879577956795B795F7959E3F08F071
:10523000B0CF9395880F08F09927EE0F9795879533
:1052400008950E9435290C94E1270E94DA2758F02E
:105250000E94D32740F029F45F3F29F00C94CA271D
:1052600051110C9415280C94D0270E94F22768F352
:105270009923B1F3552391F3951B550BBB27AA270F
:1052800062177307840738F09F5F5F4F220F331F49
:10529000441FAA1FA9F335D00E2E3AF0E0E832D011
:1052A00091505040E695001CCAF72BD0FE2F29D014
:1052B000660F771F881FBB1F261737074807AB07E6
:1052C000B0E809F0BB0B802DBF01FF2793585F4F5B
:1052D0003AF09E3F510578F00C94CA270C9415289B
:1052E0005F3FE4F3983ED4F3869577956795B7953D
:1052F000F7959F5FC9F7880F911D9695879597F948
:105300000895E1E0660F771F881FBB1F62177307C0
:105310008407BA0720F0621B730B840BBA0BEE1FD5
:1053200088F7E09508950E94FA2788F09F5798F033
:10533000B92F9927B751B0F0E1F0660F771F881F9A
:10534000991F1AF0BA95C9F714C0B13091F00E94B4
:105350001428B1E008950C941428672F782F88271B
:10536000B85F39F0B93FCCF3869577956795B395DB
:10537000D9F73EF490958095709561957F4F8F4F4A
:105380009F4F08950E94392708F48FEF08950E94D7
:105390003927880B990B0895AA1BBB1B51E107C045
:1053A000AA1FBB1FA617B70710F0A61BB70B881FB5
:1053B000991F5A95A9F780959095BC01CD01089544
:1053C000052E97FB1EF400940E94F72957FD07D085
:1053D0000E94412807FC03D04EF40C94F729509505
:1053E0004095309521953F4F4F4F5F4F08959095D1
:1053F0008095709561957F4F8F4F9F4F0895E894EA
:10540000DF93CF93FC01DB010E94A5287F936F936C
:10541000E9019A01AC01BF93AF933F932F93DF0152
:105420000E94A52826F46C1B7D0B820B930B9E011A
:10543000EB01FC010E948F2AAF91BF912F913F9108
:105440000E948F2ABE01CF01F9012F913F91CF9188
:10545000DF910895689401C0E8948F929F92CF9352
:10546000DF930E94382ADF91CF919F908F9008950B
:1054700088249924F401E401B0E49F93AA279A15A3
:105480008B049C04ED05FE05CF05D007A10798F419
:10549000AD2FDC2FCF2FFE2FE92D982C892E982FA2
:1054A000872F762F652F542F432F322F2227B85066
:1054B00031F7BF9127C01B2EBF91BB27220F331F8F
:1054C000441F551F661F771F881F991F881C991C32
:1054D000EE1FFF1FCC1FDD1FAA1FBB1F8A149B04DA
:1054E000EC05FD05CE05DF05A007B10748F08A18D9
:1054F0009B08EC09FD09CE09DF09A00BB10B216067
:105500001A94E1F62EF49401AF01BE01CD01000C16
:105510000895EE0FFF1F0590F491E02D09940E946D
:10552000A528460F571FC81FD91F08F431960895A4
:10553000FB01DC018D91019080190110D9F3990BC9
:065540000895F894FFCF6E
:10554600A706A70601FFFFFFFFFFFFFFFF0202FFFF
:105556000001018000008040000101000000000001
:105566000000000000000000000000000000000035
:105576000000000000000000000000000000012004
:10558600000800008040000101000000000000004B
:105596000000000000000000000000000000000005
:1055A6000000000000000000000000000125002BA4
:1055B60000000000004807A806D506B5070607E460
:1055C60006F8062401FD00DE00CD00A3000D0A004A
:1055D6006E616E00696E66006F76660050494E47D2
:1055E600003F00580054530054440021004B004330
:1055F60000524C005250004355005400570057309B
:0C56060000560052005A0041004E000007
:00000001FF
